:020000040800F2
:100000000000022055240008F1230008F323000813
:10001000F5230008F7230008F9230008000000007A
:10002000000000000000000000000000FB230008AA
:10003000FD23000800000000FF2300080124000841
:10004000A5240008A5240008A5240008A52400086C
:10005000A5240008A5240008A5240008A52400085C
:10006000A5240008A5240008A5240008A52400084C
:10007000A5240008A5240008A5240008A52400083C
:10008000A5240008A5240008A5240008A52400082C
:10009000A5240008A5240008A5240008A52400081C
:1000A000A5240008A5240008A5240008A52400080C
:1000B000A5240008A5240008A5240008A5240008FC
:1000C000A5240008A5240008A5240008A5240008EC
:1000D000A5240008A5240008A5240008A5240008DC
:1000E000A5240008A5240008A5240008A5240008CC
:1000F000A5240008A5240008A5240008A5240008BC
:10010000A5240008A5240008A5240008A5240008AB
:10011000A5240008A5240008A5240008A52400089B
:10012000A5240008A5240008A5240008A52400088B
:10013000A52400080000000000000000A52400081D
:10014000A5240008A5240008A5240008A52400086B
:10015000A5240008A5240008A5240008A52400085B
:10016000A5240008A5240008A5240008A52400084B
:10017000A5240008A5240008A5240008000000000C
:1001800000000000A524000800000000000000009E
:10019000A52400080000000000000000A5240008BD
:1001A000000000000000000000000000A52400087E
:1001B000A5240008A5240008A5240008A5240008FB
:0401C000A52400086A
:1001C40010B5054C237833B9044B13B10448AFF38D
:1001D40000800123237010BD0C00002000000000EB
:1001E400C825000808B5034B1BB103490348AFF306
:1001F400008008BD0000000010000020C825000891
:1002040053B94AB9002908BF00281CBF4FF0FF3179
:100214004FF0FF3000F072B9ADF1080C6DE904CE77
:1002240000F006F8DDF804E0DDE9022304B07047CD
:100234002DE9F047089E04468846002B4BD18A429C
:10024400154667D9B2FA82F24AB1C2F1200701FA1F
:1002540002F320FA07F7954047EA030894404FEA6F
:10026400154E230CB8FBFEF71FFA85FC0EFB17880E
:1002740043EA084307FB0CF1994209D9EB1807F14B
:10028400FF3080F01B81994240F21881023F2B44D9
:100294005B1AA4B2B3FBFEF00EFB103344EA034432
:1002A40000FB0CFCA44509D92C1900F1FF3380F0A4
:1002B4000781A44540F2048102382C4440EA0740F7
:1002C400A4EB0C0400271EB1D4400023C6E900436C
:1002D4003946BDE8F0878B4209D9002E00F0EB8047
:1002E4000027C6E9000138463946BDE8F087B3FA6D
:1002F40083F7002F47D18B4202D3824200F2FA8067
:10030400841A61EB030301209846002EE0D0C6E96D
:100314000048DDE702B9FFDEB2FA82F2002A40F0BB
:100324008F80491B4FEA154E1FFA85F80127B1FB50
:10033400FEFC230C0EFB1C1143EA014308FB0CF1E9
:10034400994207D9EB180CF1FF3002D2994200F21E
:10035400CD808446591AA3B2B1FBFEF00EFB1014F3
:1003640043EA044408FB00F8A04507D92C1900F11E
:10037400FF3302D2A04500F2B6801846A4EB08046D
:1003840040EA0C409FE7C7F1200CBB4022FA0CFE68
:100394004EEA030E01FA07F420FA0CF521FA0CF3E5
:1003A4004FEA1E482543B3FBF8F92C0C08FB19331C
:1003B4001FFA8EFA44EA034309FB0AF49C4202FA48
:1003C40007F200FA07F10BD91EEB030309F1FF3022
:1003D40080F087809C4240F28480A9F10209734432
:1003E4001B1BADB2B3FBF8F008FB103345EA034422
:1003F40000FB0AFAA24508D91EEB040400F1FF33FE
:100404006BD2A24569D90238744440EA0940A0FB82
:100414000289A4EB0A044C45C2464B4654D351D03E
:10042400002E69D0B1EB0A0564EB030404FA0CFC5A
:10043400FD40FC404CEA0505C6E90054002747E7A7
:10044400C2F1200320FA03F7954001FA02F021FAE1
:1004540003F34FEA154E3843010CB3FBFEF71FFAC2
:1004640085F80EFB173341EA034107FB08F38B427F
:1004740004FA02F407D9691807F1FF3C2FD28B4222
:100484002DD9023F2944CB1A81B2B3FBFEF00EFBF7
:10049400103341EA034100FB08F38B4207D9691882
:1004A40000F1FF3C17D28B4215D902382944C91AEE
:1004B40040EA07473BE73746304609E70746E7E6A1
:1004C4001846FBE64145ABD2B8EB020A69EB0E02D3
:1004D40001381346A4E76046E9E7184695E76746FE
:1004E400D1E781467CE702382C4447E7ACF1020CA3
:1004F4002B442FE7384608E73746E9E6704700BF44
:1005040010B504460E4B18784FF47A73B3FBF0F32E
:100514000C4A1068B0FBF3F000F09CF868B90F2C9B
:1005240001D901200AE0002221464FF0FF3000F0FB
:100534005DF8034B5C60002000E0012010BD00BFAB
:10054400000000200800002008B50B4B1A6842F494
:1005540000721A601A6842F480621A601A6842F4DF
:1005640080721A60032000F02FF80020FFF7C8FF04
:1005740001F0A8FE002008BD003C0240034A1168B7
:10058400034B1B780B441360704700BF9800002096
:1005940000000020014B1868704700BF980000203D
:1005A40038B50446FFF7F6FF0546B4F1FF3F02D025
:1005B400044B1B781C44FFF7EDFF401BA042FAD309
:1005C40038BD00BF00000020074AD36823F4E0636D
:1005D4001B041B0C000200F4E060184340F0BF60F1
:1005E40040F40030D060704700ED00E030B4174BA9
:1005F400DB68C3F30223C3F10704042C28BF0424DB
:100604001D1D062D18D9033B4FF0FF3505FA04F4E0
:1006140021EA0401994005FA03F322EA030319438A
:1006240000280BDB0901C9B200F1604000F561400C
:1006340080F8001330BC70470023E5E700F00F009A
:100644000901C9B2024B1954F4E700BF00ED00E000
:1006540014ED00E00138B0F1807F0AD2064B5860F7
:10066400064AF02182F823100020986007221A60BD
:1006740070470120704700BF10E000E000ED00E08B
:1006840000230F2B00F2D180F0B482B039E00622AF
:1006940000E00022B2403A430234644E46F824207B
:1006A400634A1468EA4302EA04064F6817F4803F79
:1006B40001D045EA04065E4C2660646802EA04063A
:1006C4004F6817F4003F01D045EA0406584C6660B1
:1006D400A46802EA04064F6817F4801F01D045EAB3
:1006E4000406534CA660E46822404E6816F4001FCA
:1006F40001D045EA04024E4CE26001330F2B00F2B4
:10070400918001229A400C6804EA0205AA42F4D1BD
:100714004C68022C01D0122C10D1DE08083650F897
:1007240026C003F00704A7000F24BC402CEA040CE5
:100734000C69BC4044EA0C0440F8264004685F009D
:100744000326BE40F64306EA040C4C6804F0030496
:10075400BC4044EA0C0404604C6804F1FF3CBCF166
:10076400010F03D9112C01D0122C10D1846806EA90
:10077400040CCC68BC4044EA0C048460446824EA59
:1007840002024C68C4F300149C4014434460C268E1
:1007940016408A68BA403243C2604A6812F0805FE9
:1007A400ABD000220192234A546C44F48044546434
:1007B400526C02F480420192019A9C08A61C1B4AC6
:1007C40052F8267003F0030296000F22B24027EA83
:1007D4000207194A90423FF45CAF02F580629042EE
:1007E40016D002F58062904214D002F580629042E5
:1007F40012D002F58062904210D002F580629042DD
:100804000ED002F5806290423FF441AF072241E7E7
:1008140001223FE702223DE703223BE7042239E7B6
:10082400052237E702B0F0BC70477047003801403A
:10083400003C0140003802400000024012B90904A3
:100844008161704781617047436931EA030301D0D4
:100854008161704709048161704703685A6912F421
:10086400806F11D06FF480625A61002303632022E9
:1008740080F83D2080F83E30026C42F004020264AD
:1008840080F83C300120704700207047F8B50646D8
:100894000C4617461D4622E0FFF77CFE069BC01A55
:1008A400A84200D8DDB900233363202286F83D2016
:1008B40086F83E30326C42F02002326486F83C30D6
:1008C40001201AE033685B6924EA03039BB2B3FA9C
:1008D40083F35B099F420FD1B5F1FF3FDCD1C4F331
:1008E4000743012BEED033689B6924EA03039BB2D0
:1008F400B3FA83F35B09EDE70020F8BDF8B50446CD
:100904000D4616461F463CE01A6842F400721A600F
:1009140023686FF480625A6100232363202284F8E1
:100924003D2084F83E30226C42F00402226484F8B4
:100934003C30012033E0FFF72DFEC01BB04200D84D
:10094400FEB900232363202284F83D2084F83E303E
:10095400226C42F02002226484F83C3001201EE024
:1009640023685B6925EA03039BB2003318BF0123A4
:10097400A3B123685A6912F4806FC5D1B6F1FF3F61
:10098400D9D1C5F30743012BEAD023689B6925EA33
:1009940003039BB2003318BF0123E9E70020F8BD2D
:1009A400F0B583B004460F4615461E46C36A082BAD
:1009B4000DD0012B0BD013F5803F08D0036B122B05
:1009C4000AD10268136843F48073136004E0226858
:1009D400136843F48073136000962B4600224FF093
:1009E40001112046FFF752FF18BB2369B3F5804F6E
:1009F4000DD1236807F0FE071F6133462A461049CC
:100A04002046FFF77BFF0346A0B1012312E0FB1150
:100A1400226803F0060343F0F003136133462A46C9
:100A240008492046FFF76AFF38B92368FFB21F61FF
:100A3400E3E70123184603B0F0BD0123FAE700BF42
:100A440002000100080001002DE9F04184B00446D1
:100A54000D4616461F46C26A01680B6843F480635C
:100A64000B60082A0DD0012A0BD012F5803F08D064
:100A7400036B112B0AD10268136843F4807313606B
:100A840004E02268136843F48073136000973346CC
:100A940000224FF001112046FFF7F8FE002849D14B
:100AA4002369B3F5804F0FD1236845F00105EDB2FA
:100AB4001D613B46324623492046FFF71FFF03468C
:100AC400002838D0012336E04FEAE51808F006087C
:100AD400236848F0F0021A613B4632461A49204620
:100AE400FFF70CFF08B1012325E02368EDB21D6177
:100AF4003B46324613492046FFF700FF08B1012365
:100B040019E00022039223685969039199690391BA
:100B14000399196841F480711960009733464FF0C6
:100B240001112046FFF7B2FE48B9226848F0F103EC
:100B34001361BEE70123184604B0BDE8F081012328
:100B4400F9E700BF020001000800010070B5044687
:100B54000D46164623685B6913F0800F1CD12046AE
:100B6400FFF77BFED0B9B5F1FF3FF3D0FFF712FDDD
:100B7400801BA84201D8002DECD10023236320223E
:100B840084F83D2084F83E30226C42F02002226436
:100B940084F83C30012000E0002070BD0120FCE717
:100BA40070B504460D46164623685B6913F0040FBE
:100BB4001CD12046FFF751FED0B9B5F1FF3FF3D069
:100BC400FFF7E8FC801BA84201D8002DECD10023DC
:100BD4002363202284F83D2084F83E30226C42F0C6
:100BE4002002226484F83C30012000E0002070BD23
:100BF4000120FCE770B505460C4616462B685A6979
:100C040012F0400F29D15A6912F0100F15D1FFF7D5
:100C1400C1FC801BA04201D8002CEFD100232B6320
:100C2400202285F83D2085F83E302A6C42F02002CF
:100C34002A6485F83C30012070BD6FF010025A61BF
:100C440000232B63202285F83D2085F83E302A6C52
:100C54002A6485F83C300120EEE70020ECE7000030
:100C6400002800F0BE80F8B5044690F83D30002B13
:100C74006BD0242384F83D302268136823F00103E9
:100C8400136000F091FB6268584B9A4262D8584B4B
:100C940098428CBF00230123002B40F0A480554BC5
:100CA400A3FB00239B0C21684A6822F03F021A43ED
:100CB4004A6025682A6A22F03F0266684B498E42E0
:100CC4004ED8013313432B622568E96921F44F415F
:100CD40021F0FF016368454A93424BD801385B0019
:100CE400B0FBF3F30133C3F30B03042B38BF04232A
:100CF4000B43EB6121680B6823F0C003E269206AAF
:100D0400024313430B6021688B6823F4034323F0ED
:100D1400FF032269E068024313438B602168CB68B8
:100D240023F0FF036269A06902431343CB60226886
:100D3400136843F00103136000202064202384F827
:100D44003D30206384F83E00F8BD80F83C3001F06B
:100D5400D9FA8EE7284B98428CBF002301239BE7E6
:100D64004FF4967101FB03F32449A1FB03139B0980
:100D74000133A7E7A268BAB9461E03EB4307B6FBE3
:100D8400F7F60136C6F30B06B6FA86F6760936BBD5
:100D9400C2B9013803EB4303B0FBF3F30133C3F3EC
:100DA4000B0242F40043A3E7461E03EB830707EB61
:100DB4008707B6FBF7F60136C6F30B06B6FA86F6D6
:100DC4007609E4E7013803EB830303EB8303B0FB09
:100DD400F3F20132C2F30B0242F4404388E70123E9
:100DE40086E7012070470120AEE700BFA08601001E
:100DF4007F841E0083DE1B43FF083D00D34D621039
:100E04002DE9F04184B004460E4690461F46FFF794
:100E1400C1FB94F83D30DBB2202B04D002263046CF
:100E240004B0BDE8F08105460090192301224F4922
:100E34002046FFF72BFD002840F0918094F83C30C9
:100E4400012B00F08E80012384F83C3023681A685B
:100E540012F0010F03D11A6842F001021A602268ED
:100E6400136823F400631360212384F83D301023B6
:100E740084F83E3000232364C4F824806785638D9E
:100E840023853B4BE3622B460A9A31462046FFF703
:100E940087FD0646002866D10023039323685A6918
:100EA40003929B690393039B12E0236C042B01D0F0
:100EB4000126B4E72268136843F400731360012623
:100EC400ADE72A460A992046FFF76AFE00282CD18E
:100ED400238D002B35D02A460A992046FFF736FE8B
:100EE4000028E2D1626A236812781A61616A4B1C95
:100EF4006362638D013B9BB26385238D013B9BB28F
:100F040023852268506910F0040FDAD0002BD8D062
:100F14004B781361636A01336362638D013B9BB257
:100F24006385238D013B2385CBE7236C042B01D000
:100F3400012674E72268136843F4007313600126E2
:100F44006DE72268136843F400731360202384F868
:100F54003D30002384F83E3084F83C305FE70226BD
:100F64005DE702265BE7012659E700BF0200100097
:100F74000000FFFF2DE9F04186B004460E4690467E
:100F84001F46FFF707FB94F83D30DBB2202B04D05B
:100F94000226304606B0BDE8F081054600901923CC
:100FA40001229E492046FFF771FC002840F034815D
:100FB40094F83C30012B00F03781012384F83C3055
:100FC40023681A6812F0010F03D11A6842F0010273
:100FD4001A602268136823F400631360222384F8E0
:100FE4003D30102384F83E3000232364C4F8248069
:100FF4006785638D23858A4BE3622B460C9A3146C1
:101004002046FFF721FD0646002840F00F81238D7E
:101014005BB9029323685A6902929A690292029A0E
:101024001A6842F400721A6077E0012B0FD0022B89
:101034001FD02268136843F4806313600023059370
:1010440023685A6905929B690593059B65E02268AC
:10105400136823F4806313600023039323685A699D
:1010640003929A690392039A1A6842F400721A600E
:1010740053E02268136823F48063136022681368C2
:1010840043F4006313600023049323685A690492B1
:101094009B690493049B40E02A460C992046FFF781
:1010A400A9FD002840F0C48023681A69636A1A7095
:1010B400636A01336362238D013B2385638D013BA6
:1010C4009BB2638529E000950C9B0022554920467C
:1010D400FFF7DCFB002840F0AD802268136843F47E
:1010E4000073136023681A69636A1A70626A531C76
:1010F4006362238D013B2385638D013B9BB2638532
:1011040023681B695370636A01336362238D013B57
:101114002385638D013B9BB26385238D002B72D0A5
:10112400032B49D8012BB7D0022BCCD000950C9BB4
:1011340000223C492046FFF7A9FB00287CD1226805
:10114400136823F48063136023681A69636A1A704E
:10115400636A01336362238D013B2385638D013B05
:101164009BB2638500950C9B00222E492046FFF715
:101174008DFB002862D12268136843F40073136066
:1011840023681A69636A1A70626A531C6362238D46
:10119400013B2385638D013B9BB2638523681B69F7
:1011A4005370636A01336362238D013B2385638D2E
:1011B400013B9BB26385B0E72A460C992046FFF7B2
:1011C40019FD00283CD123681A69636A1A70626A9F
:1011D400531C6362238D013B2385638D013B9BB2CA
:1011E40063852368596911F0040F96D01B69537005
:1011F400636A01336362238D013B2385638D013B65
:101204009BB2638589E7202384F83D30002384F86A
:101214003E3084F83C30BCE60226BAE602001000F8
:101224000000FFFF040001000226B2E60126B0E63A
:101234000126AEE60126ACE60126AAE60126A8E6CA
:101244000126A6E6002800F09D8070B504464F4BA9
:101254001B6803F00F038B4209D2CBB24B4A1370C5
:10126400136803F00F038B4201D0012070BD236883
:1012740013F0020F17D013F0040F04D0444A9368FC
:1012840043F4E0539360236813F0080F04D0404AFA
:10129400936843F4604393603D4A936823F0F003FA
:1012A400A068034393600D46236813F0010F32D006
:1012B4006368012B21D09A1E012A25D9344A126869
:1012C40012F0020F60D032498A6822F003021343FD
:1012D4008B60FFF75FF906462D4B9B6803F00C0308
:1012E4006268B3EB820F16D0FFF754F9801B41F20A
:1012F40088339842F0D90320B8E7254A126812F4DB
:10130400003FE0D10120B1E7214A126812F0007FCA
:10131400D9D10120AAE71D4B1B6803F00F03AB4290
:1013240009D9EAB2194B1A701B6803F00F03AB42D8
:1013340001D001209AE7236813F0040F06D0144A61
:10134400936823F4E053E1680B439360236813F03C
:10135400080F07D00E4A936823F46043216943EAD7
:10136400C103936000F040F8094B9B68C3F3031377
:10137400084AD35CD840084B18600020FFF7C0F837
:10138400002073E70120704701206FE7003C024012
:1013940000380240E025000808000020014B1868CE
:1013A400704700BF0800002008B5FFF7F7FF044BA3
:1013B4009B68C3F38223034AD35CD84008BD00BFB3
:1013C40000380240F025000808B5FFF7E7FF044B9A
:1013D4009B68C3F34233034AD35CD84008BD00BFC3
:1013E40000380240F02500082DE9F04B5C4B9B6867
:1013F40003F00C03082B07D00C2B5BD0042B00F05C
:10140400AD805848BDE8F08B554B5A6802F03F0256
:101414005B6813F4800F2AD0514B5B68C3F38813C5
:101424001E4600275C010025E41A65EB0705A901A7
:1014340041EA9461A001001B61EB0501CB0043EA82
:101444005073C400A01943EB07014B0243EAD05385
:101454004402204619460023FEF7D2FE404B5B6847
:10146400C3F3014301335B00B0FBF3F0CAE73C4B29
:101474005B68C3F388131E4600275C010025E41A49
:1014840065EB0705A90141EA9461A001001B61EB2A
:101494000501CB0043EA5073C400A01943EB0701D4
:1014A4008B0243EA90538402204619460023FEF738
:1014B400A7FED3E72A4B5A6802F03F025B6813F495
:1014C400800F28D0264B5B68C3F388131E46002781
:1014D4005C010025E41A65EB0705A90141EA946162
:1014E400A001001B61EB0501CB0043EA5073C4006B
:1014F400A01943EB07014B0243EAD05344022046B0
:1015040019460023FEF77CFE154B5B68C3F3027398
:10151400B0FBF3F076E7124B5B68C3F388131E4607
:1015240000275C010025E41A65EB0705A90141EADF
:101534009461A001001B61EB0501CB0043EA5073E9
:10154400C400A01943EB07018B0243EA90538402C1
:10155400204619460023FEF753FED5E7024851E71B
:10156400003802400024F40000127A0070B582B002
:101574000446036813F0010F41D0A64B9B6803F0A7
:101584000C03042B32D0A34B9B6803F00C03082BF1
:1015940027D0A04B9B6803F00C030C2B59D0636835
:1015A400B3F5803F5BD0B3F5A02F5ED0994B1A689A
:1015B40022F480321A601A6822F480221A60636866
:1015C400002B5CD0FEF7E6FF0546924B1B6813F434
:1015D400003F14D1FEF7DEFF401B6428F5D9032039
:1015E4009DE18C4B5B6813F4800FD2D0894B1B6850
:1015F40013F4003F03D06368002B00F08D8123684F
:1016040013F0020F67D0834B9B6813F00C0F4AD082
:10161400804B9B6803F00C03082B3FD07D4B9B68E9
:1016240003F00C030C2B48D0E368002B74D07A4BE6
:1016340001221A60FEF7AEFF0546764B1B6813F0D5
:10164400020F60D1FEF7A6FF401B0228F5D9032044
:1016540065E1704B5B6813F4800FA0D0C6E76D4A58
:10166400136843F480331360A9E76A4B1A6842F4A1
:1016740080221A601A6842F480321A609FE7FEF7EB
:1016840089FF0546634B1B6813F4003FB7D0FEF790
:1016940081FF401B6428F5D9032040E15D4B5B6862
:1016A40013F4800FBAD15B4B1B6813F0020F0AD0FE
:1016B400E368012B07D0012031E1564B5B6813F43A
:1016C400800FB1D1EFE7534A136823F0F80321697F
:1016D40043EAC1031360236813F0080F40D0636921
:1016E40063B34E4B01221A60FEF754FF0546494B83
:1016F4005B6F13F0020F33D1FEF74CFF401B02283F
:10170400F5D903200BE1434A136823F0F803216958
:1017140043EAC1031360DEE73F4B00221A60FEF781
:1017240039FF05463B4B1B6813F0020FD3D0FEF77D
:1017340031FF401B0228F5D90320F0E0374B00228B
:101744001A60FEF727FF0546324B5B6F13F0020F5A
:1017540006D0FEF71FFF401B0228F5D90320DEE068
:10176400236813F0040F79D02A4B1B6C13F0805FAD
:1017740033D100230193274B1A6C42F080521A6430
:101784001B6C03F080530193019B0125244B1B68C0
:1017940013F4807F23D0A368012B34D0052B41D0D0
:1017A4001C4B1A6F22F001021A671A6F22F004020E
:1017B4001A67A368002B3FD0FEF7ECFE0646154BD4
:1017C4001B6F13F0020F48D1FEF7E4FE801B41F2B9
:1017D40088339842F3D90320A1E00025D6E7104AC4
:1017E400136843F480731360FEF7D4FE06460C4B73
:1017F4001B6813F4807FCED1FEF7CCFE801B022839
:10180400F5D903208BE0034A136F43F001031367F8
:10181400CFE700BF0038024000004742800E474235
:1018240000700040404B1A6F42F004021A671A6FAE
:1018340042F001021A67BCE7FEF7ACFE06463A4BDB
:101844001B6F13F0020F08D0FEF7A4FE801B41F2B9
:1018540088339842F3D9032061E0E5B9A369002BEA
:101864005CD0314A926802F00C02082A59D0022B4B
:1018740017D02E4B00221A60FEF78CFE04462A4B2A
:101884001B6813F0007F45D0FEF784FE001B02287E
:10189400F5D9032043E0244A136C23F080531364E6
:1018A400DCE7224B00221A60FEF774FE05461E4B4D
:1018B4001B6813F0007F06D0FEF76CFE401B022865
:1018C400F5D903202BE0E369226A1343626A43EAF1
:1018D4008213A26A5208013A43EA0243E26A43EAE3
:1018E4000263226B43EA02730F4A53600F4B0122D7
:1018F4001A60FEF74FFE04460B4B1B6813F0007F83
:1019040006D1FEF747FE001B0228F5D9032006E0A6
:10191400002004E0002002E0012000E0002002B0EA
:1019240070BD0120FBE700BF003802406000474261
:101934002DE9F84304460268136923F44053C1684F
:101944000B43136183680269134342691343C269F9
:101954001A430168CB6823F4164323F00C031343A2
:10196400CB600268536923F4407381690B4353616C
:10197400C369B3F5004F60D00368B84A934200F0DE
:10198400148102F58062934200F00F81FFF70CFD91
:1019940000EB800000EB80006568AD00B0FBF5F55E
:1019A400AF4FA7FB05356D092E01FFF7FDFC00EBDA
:1019B400800000EB80006568AD00B0FBF5F9FFF72F
:1019C400F3FC00EB800000EB80006568AD00B0FB29
:1019D400F5F5A7FB05356D094FF0640808FB15956F
:1019E4002D013235A7FB05356D0905F0F0053544A9
:1019F400FFF7DAFC00EB800000EB80006668B600BD
:101A0400B0FBF6F6FFF7D0FC00EB800000EB8000A3
:101A140063689B00B0FBF3F0A7FB0030400908FBB0
:101A240010684FEA081808F13208A7FB0837C7F313
:101A3400431723682F449F600DE10368874A93424C
:101A44005BD002F58062934257D0FFF7ADFC00EB08
:101A5400800000EB800065686D00B0FBF5F5804FF9
:101A6400A7FB05356D092E01FFF79EFC00EB8000F6
:101A740000EB800065686D00B0FBF5F9FFF794FC9E
:101A840000EB800000EB800065686D00B0FBF5F5AD
:101A9400A7FB05356D094FF0640808FB1595ED00AB
:101AA4003235A7FB05356D096D0005F4F87535442D
:101AB400FFF77AFC00EB800000EB8000666876009C
:101AC400B0FBF6F6FFF770FC00EB800000EB800043
:101AD40063685B00B0FBF3F3A7FB03235B0908FB1C
:101AE40013684FEAC80808F13208A7FB0837C7F3A0
:101AF400421723682F449F60ADE0FFF765FC00EBBD
:101B0400800000EB800065686D00B0FBF5F5544F74
:101B1400A7FB05356D092E01FFF756FC00EB80008D
:101B240000EB800065686D00B0FBF5F9FFF74CFC35
:101B340000EB800000EB800065686D00B0FBF5F5FC
:101B4400A7FB05356D094FF0640808FB1595ED00FA
:101B54003235A7FB05356D096D0005F4F87535447C
:101B6400FFF732FC00EB800000EB80006668760033
:101B7400B0FBF6F6FFF728FC00EB800000EB8000DA
:101B840063685B00B0FBF3F3A7FB03235B0908FB6B
:101B940013684FEAC80808F13208A7FB0837C7F3EF
:101BA400421723682F449F6055E0FFF70DFC00EBBC
:101BB400800000EB80006568AD00B0FBF5F5284FB0
:101BC400A7FB05356D092E01FFF7FEFB00EB800036
:101BD40000EB80006568AD00B0FBF5F9FFF7F4FB9E
:101BE40000EB800000EB80006568AD00B0FBF5F50C
:101BF400A7FB05356D094FF0640808FB15952D0109
:101C04003235A7FB05356D0905F0F0053544FFF7BE
:101C1400DBFB00EB800000EB80006668B600B0FBE5
:101C2400F6F6FFF7D1FB00EB800000EB8000636861
:101C34009B00B0FBF3F0A7FB0030400908FB1068E1
:101C44004FEA081808F13208A7FB0837C7F343170F
:101C540023682F449F60BDE8F88300BF0010014053
:101C64001F85EB512DE9F04105460F46164698466F
:101C7400069C2B681B6837EA03030CBF012300236F
:101C8400B3421DD1B4F1FF3FF3D02CB1FEF782FC77
:101C9400A0EB0800A042ECD92A68D36823F4D073DF
:101CA400D3602A68536923F001035361202385F824
:101CB400393085F83A30002385F83830032000E0C5
:101CC4000020BDE8F08158B310B5044690F83930CF
:101CD4000BB3242384F839302268D36823F40053E7
:101CE400D3602046FFF724FE2268136923F490434F
:101CF40013612268536923F02A0353612268D3686D
:101D040043F40053D3600020E063202384F8393087
:101D140084F83A3010BD80F8383000F02DFBD8E755
:101D2400012070472DE9F04182B01E4690F8393009
:101D3400DBB2202B55D104460D469046002955D0E0
:101D4400002A55D090F83830012B53D0012380F865
:101D540038300023C363212380F83930FEF71AFC9E
:101D64000746A4F82480A4F8268010E000963B4699
:101D7400002280212046FFF775FF00283CD12B88E4
:101D84002268C3F3080353602369C3B90235E38CA3
:101D94009BB2B3B1E38C013B9BB2E384A368B3F57C
:101DA400805FE3D000963B46002280212046FFF767
:101DB40059FF18BB2A7823685A600135E7E70135D3
:101DC400E5E700963B46002240212046FFF74AFF04
:101DD4000346A8B9202284F83920002284F8382048
:101DE40000E00223184602B0BDE8F0810123F9E7C0
:101DF4000123F7E70223F5E70323F3E70323F1E7DE
:101E04000323EFE708B554220146024800F088FB9B
:101E140008BD00BF2800002070B584B00D461646EA
:101E240004AA02F8040D094C0A2300930123D021CB
:101E34002046FEF7E5FF6423009333462A46D0216B
:101E44002046FFF797F804B070BD00BF28000020BB
:101E540000B585B08DF80C008DF80D106423009347
:101E6400022303AAD0210348FEF7CAFF05B05DF898
:101E740004FB00BF2800002008B501461920FFF725
:101E8400E7FF08BD10B5044680216B20FFF7E0FF93
:101E94006420FEF785FB217801F0070123799B017B
:101EA40003F0400319436B20FFF7D2FF6420FEF7D1
:101EB40077FBE17801F007011A20FFF7C9FF617889
:101EC400C90001F018011B20FFF7C2FFA178C90067
:101ED40001F018011C20FFF7BBFF0420FFF7CCFF23
:101EE400A378032B06D8DFE803F0020C1014134B7D
:101EF400134A5A656378032B12D8DFE803F00E12F5
:101F0400161A0E4B0F4A5A65F4E70C4B0E4A5A65E3
:101F1400F0E70A4B0D4A5A65ECE7084B0C4A9A6500
:101F240010BD064B0B4A9A65FAE7044B0A4A9A65B8
:101F3400F6E7024B024A9A65F2E700BF2800002048
:101F440000007A3D0000FA3D00007A3E0000FA3EAF
:101F54000000FA3B00007A3C0000FA3C10B586B061
:101F6400044601220DF115013A20FFF755FF9DF8B3
:101F740015300BB906B010BD062203A93B20FFF7AC
:101F84004BFF9DF80C209DF80D3003EB02232380BA
:101F94009DF80E209DF80F3003EB022363809DF81B
:101FA40010209DF8113003EB0223A380062201A91F
:101FB4004320FFF731FF9DF804309DF8052002EB24
:101FC40003220A4BA3F85C209DF806109DF8072015
:101FD40002EB0122A3F85E209DF808109DF8092069
:101FE40002EB0122A3F86020C4E700BF2800002010
:101FF400054BB3F95C200280B3F95E204280B3F94B
:1020040060308380704700BF2800002030B58BB05B
:102014000024059406940794089409940194224B8F
:102024001A6B42F004021A631A6B02F00402019262
:10203400019A02941A6B42F080021A631A6B02F03E
:1020440080020292029A03941A6B42F001021A630C
:102054001A6B02F001020392039A04941A6B42F081
:1020640002021A631B6B03F002030493049B0F4DDB
:10207400224620212846FEF7E1FB4FF40053059346
:102084000B4B0693079405A90A48FEF7F9FA202397
:102094000593012306930794089405A92846FEF79F
:1020A400EFFA0BB030BD00BF003802400000024020
:1020B400000021100008024008B50948094B0360DC
:1020C400094B436000238360C3604FF48042026184
:1020D40043618361C3610362FEF7C2FD08BD00BFB3
:1020E4009C00002000540040A086010008B5084868
:1020F400084B03604FF4E133436000238360C36003
:1021040003610C2242618361C361FFF7DCFD08BDFA
:10211400F80000200044004030B595B0342200217E
:1021240007A800F008FA0024029403940494059488
:10213400069400941B4B1A6C42F080521A641B6C78
:1021440003F080530093009B0194174A136823F40F
:10215400404343F480431360136803F44043019302
:10216400019B0225079501230A9310230B930D95D8
:102174000E940F934FF4A8731093042311931295A4
:10218400139507A8FFF7F2F90F230293039504941C
:102194004FF4805305930694294602A8FFF752F89A
:1021A40015B030BD0038024000700040F0B587B073
:1021B400FEF7CAF9FFF7B0FFFFF728FFFFF77CFF30
:1021C400FFF794FF3A48FFF71DFE01238DF8123004
:1021D40000228DF810208DF813308DF811308DF811
:1021E400142004A8FFF74EFE324E3046FFF7B6FE29
:1021F4003148FFF7FDFE0A2202A9B6F9000000F0FB
:102204008DF92E4C4FF0FF33062202A92046FFF72A
:1022140089FD2C2706AD05F8117D4FF0FF3306220A
:1022240029462046FFF77EFD0A220DEB0201B6F98E
:10223400020000F073F94FF0FF3306220DF10A019A
:102244002046FFF76FFD8DF807704FF0FF3306222D
:1022540029462046FFF766FD0A220DEB0201B6F976
:10226400020000F05BF94FF0FF3306220DF10A0182
:102274002046FFF757FD0D238DF807304FF0FF334D
:10228400062229462046FFF74DFD0A238DF8073024
:102294004FF0FF33062229462046FFF743FD202155
:1022A4000748FEF7D1FA6420FEF77AF99CE700BFED
:1022B4009C00002038010020F0000020F8000020DD
:1022C4000000024000B583B0002100910C4B5A6C11
:1022D40042F480425A645A6C02F480420092009A9A
:1022E40001911A6C42F080521A641B6C03F0805303
:1022F4000193019B0720FEF767F903B05DF804FB27
:102304000038024030B589B0002303930493059349
:10231400069307930268154B9A4201D009B030BD69
:1023240000250195124C236B43F002032363236BB6
:1023340003F002030193019B4FF4407303931223B0
:10234400049301230593032306930423079303A90A
:102354000848FEF795F90295236C43F400132364AF
:10236400236C03F400130293029BD7E7005400404C
:10237400003802400004024000B589B000230393F2
:1023840004930593069307930268164B9A4202D06E
:1023940009B05DF804FB0021019103F5FA331A6CCE
:1023A40042F400321A641A6C02F400320192019A67
:1023B40002911A6B42F001021A631B6B03F00103D2
:1023C4000293029B0C23039302230493012305939A
:1023D400032306930723079303A90348FEF750F941
:1023E400D6E700BF00440040000002407047FEE70B
:1023F400FEE7FEE7FEE770477047704708B5FEF753
:10240400BDF808BD0F49D1F8883043F47003C1F812
:1024140088300D4B1A6842F001021A60002098605F
:102424001A6822F0847222F480321A60074A5A60D1
:102434001A6822F480221A60D8604FF000638B601F
:10244400704700BF00ED00E0003802401030002467
:10245400DFF834D0002103E00C4B5B5843500431C7
:102464000B480C4B42189A42F6D30B4A02E0002365
:1024740042F8043B094B9A42F9D3FFF7C3FF00F03B
:1024840011F8FFF793FE7047000002203026000881
:10249400000000200C0000200C000020400100205F
:1024A400FEE7000070B50D4E0D4CA41BA4100025D2
:1024B400A54209D10B4E0C4C00F084F8A41BA410C7
:1024C4000025A54205D170BD56F825309847013541
:1024D400EEE756F8253098470135F2E7282600083C
:1024E40028260008282600082C260008931E222BE4
:1024F40010B50C4604D900230B701C46204610BDB1
:102504000A2A09D1002807DA2D230B704042012141
:10251400214400F019F8F1E70021F9E7FFF7E6BFDD
:1025240010B5431E0A44914200D110BD11F8014B6D
:1025340003F8014FF7E702440346934200D1704782
:1025440003F8011BF9E70000F0B51D4B8BB00546FD
:102554000C466E4603F1200C18685968374603C7C9
:10256400083363453E46F7D118681B793B71931EC7
:10257400222B38604FF0000304D923701C462046F8
:102584000BB0F0BD661EB5FBF2F00AAF02FB1055AE
:102594003D44591C15F8285C06F8015F054668B9E6
:1025A400605423442246191B101B8142E7DD117835
:1025B400187802F8010B03F80119F4E70B46E2E777
:1025C400F8250008F8B500BFF8BC08BC9E46704763
:0C25D400F8B500BFF8BC08BC9E4670477C
:1025E00000000000000000000102030406070809C3
:1025F0000000000001020304303132333435363735
:1026000038396162636465666768696A6B6C6D6EB0
:102610006F707172737475767778797A0000000044
:0826200014DCFF7F0100000043
:04262800E9010008BC
:04262C00C5010008DC
:0C26300001000000100000000024F40075
:040000050800245576
:00000001FF
